:02000000C12914
:10000800CF00030E830199000A089A008A0140086C
:100018008D0041088C008B1C15288B1001308F0037
:100028001A280B1D1A280B11930A920A0D08C000F2
:100038000C08C1001A088A00190E8300CF0E4F0E53
:020048000900AD
:10004A0083129501F03085050F08013A031D7A28BD
:10005A00061B77280230CB000430CC00BA30CD0022
:10006A00CD0B3528CC0B3528CB0B35280000061BC9
:10007A00732806120E308604861F73280230CB00BE
:10008A000430CC00BA30CD00CD0B4928CC0B49281E
:10009A00CB0B49280000861F7328950A1508063AD3
:1000AA00031D64289501F03085050630CC003030F8
:1000BA00CD00CD0B5E28CC0B5E2800007328F030F3
:1000CA000505C0001508400485000630CC00303014
:1000DA00CD00CD0B6E28CC0B6E280000861F76282B
:0C00EA0073282D28061F7A2877280800AC
:1000F60083129601F03085050F08013A031DD028BA
:10010600061BCD280230CB000430CC00BA30CD001F
:10011600CD0B8B28CC0B8B28CB0B8B280000061B1A
:10012600C928861116308604861FC9280230CB00DE
:100136000430CC00BA30CD00CD0B9F28CC0B9F28C5
:10014600CB0B9F280000861FC928960A16080A3A74
:10015600031DBA289601F03085050630CC003030F4
:10016600CD00CD0BB428CC0BB4280000C928F03044
:100176000505C0001608400485000630CC00303066
:10018600CD00CD0BC428CC0BC4280000861FCC287C
:0C019600C9288328061FD028CD280800A7
:0C01A200831218088A0017088200080069
:1001AE0083129401F03085050F08013A031D2C29A6
:1001BE00061B29290230CB000430CC00BA30CD000A
:1001CE00CD0BE728CC0BE728CB0BE7280000061B4E
:1001DE00252906111A308604861F25290230CB00E8
:1001EE000430CC00BA30CD00CD0BFB28CC0BFB2855
:1001FE00CB0BFB280000861F2529940A1408063A0B
:10020E00031D16299401F03085050630CC003030E0
:10021E00CD00CD0B1029CC0B102900002529F03074
:10022E000505C0001408400485000630CC003030AF
:10023E00CD00CD0B2029CC0B20290000861F2829AC
:0C024E002529DF28061F2C29292908007B
:10025A0083128E01F03085050F08013A031D8329A8
:10026A00061B80290230CB000430CC00BA30CD0006
:10027A00CD0B3D29CC0B3D29CB0B3D290000061B9C
:10028A007C298610061586150616861F7C290230DB
:10029A00CB000430CC00BA30CD00CD0B5229CC0BA8
:1002AA005229CB0B52290000861F7C298E0A0E0880
:1002BA000A3A031D6D298E01F03085050630CC00FF
:1002CA003030CD00CD0B6729CC0B672900007C2983
:1002DA00F0300505C0000E08400485000630CC0049
:1002EA003030CD00CD0B7729CC0B77290000861F43
:0E02FA007F297C293529061F832980290800C9
:0C0308000B168316011706148510080060
:10031400831203134008C100C0010830CC00410817
:10032400C40C03189929CC0B9229C1010034031081
:100334009E29C40C0318C107C10CC00CCC0B9B290B
:020344000800AF
:10034600D1208A110A128000840A970A0319980A92
:08035600C003031DA3290800E8
:10035E0083120F08013A031DB9292D21D7207B20C6
:06036E0025208F010800AC
:0E037400D730831681058B16073081040800F0
:1003820083128E018F0190019101920193019401D8
:1003920095019601F030831685050512F03083121F
:1003A2008505E1308316860583120614C030831654
:1003B20086048B17BA2184210F08013A031DE22912
:1003C200AF2113081E3A031D132A83128E0A01302D
:1003D20086060E080A3A031DF0298E01940A1408B3
:1003E200063A031DF6299401960A16080A3A031DD5
:1003F200FC299601950A1508063A031D012A950162
:1004020093011408C0000A30C4008A210E08400774
:1004120090001508C0000A30C4008A21160840075F
:100422009100602A83120615861506168610F03092
:100432000505C0000E08400485000630CC003030AF
:10044200CD00CD0B222ACC0B222A00008614861561
:1004520006160611F0300505C00014084004850098
:100462000630CC003030CD00CD0B352ACC0B352AEE
:1004720000008614061506168611F0300505C00028
:100482001608400485000630CC003030CD00CD0B7C
:10049200482ACC0B482A0000861406158615061237
:1004A200F0300505C0001508400485000630CC0078
:1004B2003030CD00CD0B5B2ACC0B5B2A0000DD294E
:0204C200612AAD
:02400E00FA3F77
:00000001FF
